{
  "_format": "hh-sol-artifact-1",
  "contractName": "ERC20Factory",
  "sourceName": "contracts/ERC20Factroy.sol",
  "abi": [
    {
      "anonymous": false,
      "inputs": [
        {
          "indexed": true,
          "internalType": "address",
          "name": "tokenAddress",
          "type": "address"
        },
        {
          "indexed": false,
          "internalType": "string",
          "name": "symbol",
          "type": "string"
        },
        {
          "indexed": true,
          "internalType": "uint256",
          "name": "cap",
          "type": "uint256"
        }
      ],
      "name": "ERC20TokenCreated",
      "type": "event"
    },
    {
      "inputs": [
        {
          "internalType": "string",
          "name": "name",
          "type": "string"
        },
        {
          "internalType": "string",
          "name": "symbol",
          "type": "string"
        },
        {
          "internalType": "uint256",
          "name": "cap",
          "type": "uint256"
        }
      ],
      "name": "deployNewERC20Token",
      "outputs": [
        {
          "internalType": "address",
          "name": "",
          "type": "address"
        }
      ],
      "stateMutability": "nonpayable",
      "type": "function"
    },
    {
      "inputs": [
        {
          "internalType": "string",
          "name": "name",
          "type": "string"
        },
        {
          "internalType": "string",
          "name": "symbol",
          "type": "string"
        }
      ],
      "name": "deployNewERC721Token",
      "outputs": [
        {
          "internalType": "address",
          "name": "",
          "type": "address"
        }
      ],
      "stateMutability": "nonpayable",
      "type": "function"
    }
  ],
  "bytecode": "0x608060405234801561001057600080fd5b506138e9806100206000396000f3fe60806040523480156200001157600080fd5b50600436106200003a5760003560e01c806353ab80be146200003f578063caa666cc1462000075575b600080fd5b6200005d600480360381019062000057919062000224565b620000ab565b6040516200006c91906200030d565b60405180910390f35b6200009360048036038101906200008d919062000487565b62000151565b604051620000a291906200030d565b60405180910390f35b6000808686868686604051620000c19062000159565b620000d195949392919062000561565b604051809103906000f080158015620000ee573d6000803e3d6000fd5b509050828173ffffffffffffffffffffffffffffffffffffffff167fbe336cf24f327743718388b6dd5e8ae33628db8fa5d9ac7a8d5514b86f7701cb87876040516200013c929190620005b0565b60405180910390a38091505095945050505050565b600092915050565b6132dd80620005d783390190565b6000604051905090565b600080fd5b600080fd5b600080fd5b600080fd5b600080fd5b60008083601f840112620001a357620001a26200017b565b5b8235905067ffffffffffffffff811115620001c357620001c262000180565b5b602083019150836001820283011115620001e257620001e162000185565b5b9250929050565b6000819050919050565b620001fe81620001e9565b81146200020a57600080fd5b50565b6000813590506200021e81620001f3565b92915050565b60008060008060006060868803121562000243576200024262000171565b5b600086013567ffffffffffffffff81111562000264576200026362000176565b5b62000272888289016200018a565b9550955050602086013567ffffffffffffffff81111562000298576200029762000176565b5b620002a6888289016200018a565b93509350506040620002bb888289016200020d565b9150509295509295909350565b600073ffffffffffffffffffffffffffffffffffffffff82169050919050565b6000620002f582620002c8565b9050919050565b6200030781620002e8565b82525050565b6000602082019050620003246000830184620002fc565b92915050565b600080fd5b6000601f19601f8301169050919050565b7f4e487b7100000000000000000000000000000000000000000000000000000000600052604160045260246000fd5b6200037a826200032f565b810181811067ffffffffffffffff821117156200039c576200039b62000340565b5b80604052505050565b6000620003b162000167565b9050620003bf82826200036f565b919050565b600067ffffffffffffffff821115620003e257620003e162000340565b5b620003ed826200032f565b9050602081019050919050565b82818337600083830152505050565b6000620004206200041a84620003c4565b620003a5565b9050828152602081018484840111156200043f576200043e6200032a565b5b6200044c848285620003fa565b509392505050565b600082601f8301126200046c576200046b6200017b565b5b81356200047e84826020860162000409565b91505092915050565b60008060408385031215620004a157620004a062000171565b5b600083013567ffffffffffffffff811115620004c257620004c162000176565b5b620004d08582860162000454565b925050602083013567ffffffffffffffff811115620004f457620004f362000176565b5b620005028582860162000454565b9150509250929050565b600082825260208201905092915050565b60006200052b83856200050c565b93506200053a838584620003fa565b62000545836200032f565b840190509392505050565b6200055b81620001e9565b82525050565b600060608201905081810360008301526200057e8187896200051d565b90508181036020830152620005958185876200051d565b9050620005a6604083018462000550565b9695505050505050565b60006020820190508181036000830152620005cd8184866200051d565b9050939250505056fe60a06040523480156200001157600080fd5b50604051620032dd380380620032dd833981810160405281019062000037919062000629565b8282816005908051906020019062000051929190620003a1565b5080600690805190602001906200006a929190620003a1565b50505060008111620000b3576040517f08c379a0000000000000000000000000000000000000000000000000000000008152600401620000aa9062000724565b60405180910390fd5b8060808181525050620000d06000801b326200010b60201b60201c565b620001027f9f2df0fed2c77648de5860a4cc508cd0818c85b8b8a1ab4ceeef8d981c8956a6326200010b60201b60201c565b505050620007ab565b6200012282826200015360201b62000d451760201c565b6200014e81600160008581526020019081526020016000206200016960201b62000d531790919060201c565b505050565b620001658282620001a160201b60201c565b5050565b600062000199836000018373ffffffffffffffffffffffffffffffffffffffff1660001b6200029260201b60201c565b905092915050565b620001b382826200030c60201b60201c565b6200028e57600160008084815260200190815260200160002060000160008373ffffffffffffffffffffffffffffffffffffffff1673ffffffffffffffffffffffffffffffffffffffff16815260200190815260200160002060006101000a81548160ff021916908315150217905550620002336200037660201b60201c565b73ffffffffffffffffffffffffffffffffffffffff168173ffffffffffffffffffffffffffffffffffffffff16837f2f8788117e7eff1d82e926ec794901d17c78024a50270940304540a733656f0d60405160405180910390a45b5050565b6000620002a683836200037e60201b60201c565b6200030157826000018290806001815401808255809150506001900390600052602060002001600090919091909150558260000180549050836001016000848152602001908152602001600020819055506001905062000306565b600090505b92915050565b600080600084815260200190815260200160002060000160008373ffffffffffffffffffffffffffffffffffffffff1673ffffffffffffffffffffffffffffffffffffffff16815260200190815260200160002060009054906101000a900460ff16905092915050565b600033905090565b600080836001016000848152602001908152602001600020541415905092915050565b828054620003af9062000775565b90600052602060002090601f016020900481019282620003d357600085556200041f565b82601f10620003ee57805160ff19168380011785556200041f565b828001600101855582156200041f579182015b828111156200041e57825182559160200191906001019062000401565b5b5090506200042e919062000432565b5090565b5b808211156200044d57600081600090555060010162000433565b5090565b6000604051905090565b600080fd5b600080fd5b600080fd5b600080fd5b6000601f19601f8301169050919050565b7f4e487b7100000000000000000000000000000000000000000000000000000000600052604160045260246000fd5b620004ba826200046f565b810181811067ffffffffffffffff82111715620004dc57620004db62000480565b5b80604052505050565b6000620004f162000451565b9050620004ff8282620004af565b919050565b600067ffffffffffffffff82111562000522576200052162000480565b5b6200052d826200046f565b9050602081019050919050565b60005b838110156200055a5780820151818401526020810190506200053d565b838111156200056a576000848401525b50505050565b600062000587620005818462000504565b620004e5565b905082815260208101848484011115620005a657620005a56200046a565b5b620005b38482856200053a565b509392505050565b600082601f830112620005d357620005d262000465565b5b8151620005e584826020860162000570565b91505092915050565b6000819050919050565b6200060381620005ee565b81146200060f57600080fd5b50565b6000815190506200062381620005f8565b92915050565b6000806000606084860312156200064557620006446200045b565b5b600084015167ffffffffffffffff81111562000666576200066562000460565b5b6200067486828701620005bb565b935050602084015167ffffffffffffffff81111562000698576200069762000460565b5b620006a686828701620005bb565b9250506040620006b98682870162000612565b9150509250925092565b600082825260208201905092915050565b7f45524332304361707065643a2063617020697320300000000000000000000000600082015250565b60006200070c601583620006c3565b91506200071982620006d4565b602082019050919050565b600060208201905081810360008301526200073f81620006fd565b9050919050565b7f4e487b7100000000000000000000000000000000000000000000000000000000600052602260045260246000fd5b600060028204905060018216806200078e57607f821691505b60208210811415620007a557620007a462000746565b5b50919050565b608051612b16620007c760003960006107a40152612b166000f3fe608060405234801561001057600080fd5b50600436106101585760003560e01c806370a08231116100c3578063a9059cbb1161007c578063a9059cbb14610415578063a9e422d714610445578063ca15c87314610475578063d5391393146104a5578063d547741f146104c3578063dd62ed3e146104df57610158565b806370a08231146103195780639010d07c1461034957806391d148541461037957806395d89b41146103a9578063a217fddf146103c7578063a457c2d7146103e557610158565b80632f2ff15d116101155780632f2ff15d14610259578063313ce56714610275578063355274ea1461029357806336568abe146102b157806339509351146102cd57806340c10f19146102fd57610158565b806301ffc9a71461015d57806306fdde031461018d578063095ea7b3146101ab57806318160ddd146101db57806323b872dd146101f9578063248a9ca314610229575b600080fd5b61017760048036038101906101729190611c65565b61050f565b6040516101849190611cad565b60405180910390f35b610195610589565b6040516101a29190611d61565b60405180910390f35b6101c560048036038101906101c09190611e17565b61061b565b6040516101d29190611cad565b60405180910390f35b6101e3610639565b6040516101f09190611e66565b60405180910390f35b610213600480360381019061020e9190611e81565b610643565b6040516102209190611cad565b60405180910390f35b610243600480360381019061023e9190611f0a565b610744565b6040516102509190611f46565b60405180910390f35b610273600480360381019061026e9190611f61565b610763565b005b61027d610797565b60405161028a9190611fbd565b60405180910390f35b61029b6107a0565b6040516102a89190611e66565b60405180910390f35b6102cb60048036038101906102c69190611f61565b6107c8565b005b6102e760048036038101906102e29190611e17565b6107fc565b6040516102f49190611cad565b60405180910390f35b61031760048036038101906103129190611e17565b6108a8565b005b610333600480360381019061032e9190611fd8565b610982565b6040516103409190611e66565b60405180910390f35b610363600480360381019061035e9190612005565b6109cb565b6040516103709190612054565b60405180910390f35b610393600480360381019061038e9190611f61565b6109fa565b6040516103a09190611cad565b60405180910390f35b6103b1610a64565b6040516103be9190611d61565b60405180910390f35b6103cf610af6565b6040516103dc9190611f46565b60405180910390f35b6103ff60048036038101906103fa9190611e17565b610afd565b60405161040c9190611cad565b60405180910390f35b61042f600480360381019061042a9190611e17565b610bf1565b60405161043c9190611cad565b60405180910390f35b61045f600480360381019061045a9190611fd8565b610c0f565b60405161046c9190611cad565b60405180910390f35b61048f600480360381019061048a9190611f0a565b610c42565b60405161049c9190611e66565b60405180910390f35b6104ad610c66565b6040516104ba9190611f46565b60405180910390f35b6104dd60048036038101906104d89190611f61565b610c8a565b005b6104f960048036038101906104f4919061206f565b610cbe565b6040516105069190611e66565b60405180910390f35b60007f5a05180f000000000000000000000000000000000000000000000000000000007bffffffffffffffffffffffffffffffffffffffffffffffffffffffff1916827bffffffffffffffffffffffffffffffffffffffffffffffffffffffff19161480610582575061058182610d83565b5b9050919050565b606060058054610598906120de565b80601f01602080910402602001604051908101604052809291908181526020018280546105c4906120de565b80156106115780601f106105e657610100808354040283529160200191610611565b820191906000526020600020905b8154815290600101906020018083116105f457829003601f168201915b5050505050905090565b600061062f610628610dfd565b8484610e05565b6001905092915050565b6000600454905090565b6000610650848484610fd0565b6000600360008673ffffffffffffffffffffffffffffffffffffffff1673ffffffffffffffffffffffffffffffffffffffff168152602001908152602001600020600061069b610dfd565b73ffffffffffffffffffffffffffffffffffffffff1673ffffffffffffffffffffffffffffffffffffffff1681526020019081526020016000205490508281101561071b576040517f08c379a000000000000000000000000000000000000000000000000000000000815260040161071290612182565b60405180910390fd5b61073885610727610dfd565b858461073391906121d1565b610e05565b60019150509392505050565b6000806000838152602001908152602001600020600101549050919050565b61076d8282611252565b6107928160016000858152602001908152602001600020610d5390919063ffffffff16565b505050565b60006012905090565b60007f0000000000000000000000000000000000000000000000000000000000000000905090565b6107d2828261127b565b6107f781600160008581526020019081526020016000206112fe90919063ffffffff16565b505050565b600061089e610809610dfd565b848460036000610817610dfd565b73ffffffffffffffffffffffffffffffffffffffff1673ffffffffffffffffffffffffffffffffffffffff16815260200190815260200160002060008873ffffffffffffffffffffffffffffffffffffffff1673ffffffffffffffffffffffffffffffffffffffff168152602001908152602001600020546108999190612205565b610e05565b6001905092915050565b6108d97f9f2df0fed2c77648de5860a4cc508cd0818c85b8b8a1ab4ceeef8d981c8956a66108d4610dfd565b6109fa565b610918576040517f08c379a000000000000000000000000000000000000000000000000000000000815260040161090f906122cd565b60405180910390fd5b6109206107a0565b81610929610639565b6109339190612205565b1115610974576040517f08c379a000000000000000000000000000000000000000000000000000000000815260040161096b90612339565b60405180910390fd5b61097e828261132e565b5050565b6000600260008373ffffffffffffffffffffffffffffffffffffffff1673ffffffffffffffffffffffffffffffffffffffff168152602001908152602001600020549050919050565b60006109f2826001600086815260200190815260200160002061148390919063ffffffff16565b905092915050565b600080600084815260200190815260200160002060000160008373ffffffffffffffffffffffffffffffffffffffff1673ffffffffffffffffffffffffffffffffffffffff16815260200190815260200160002060009054906101000a900460ff16905092915050565b606060068054610a73906120de565b80601f0160208091040260200160405190810160405280929190818152602001828054610a9f906120de565b8015610aec5780601f10610ac157610100808354040283529160200191610aec565b820191906000526020600020905b815481529060010190602001808311610acf57829003601f168201915b5050505050905090565b6000801b81565b60008060036000610b0c610dfd565b73ffffffffffffffffffffffffffffffffffffffff1673ffffffffffffffffffffffffffffffffffffffff16815260200190815260200160002060008573ffffffffffffffffffffffffffffffffffffffff1673ffffffffffffffffffffffffffffffffffffffff16815260200190815260200160002054905082811015610bc9576040517f08c379a0000000000000000000000000000000000000000000000000000000008152600401610bc0906123cb565b60405180910390fd5b610be6610bd4610dfd565b858584610be191906121d1565b610e05565b600191505092915050565b6000610c05610bfe610dfd565b8484610fd0565b6001905092915050565b6000610c3b7f9f2df0fed2c77648de5860a4cc508cd0818c85b8b8a1ab4ceeef8d981c8956a6836109fa565b9050919050565b6000610c5f6001600084815260200190815260200160002061149d565b9050919050565b7f9f2df0fed2c77648de5860a4cc508cd0818c85b8b8a1ab4ceeef8d981c8956a681565b610c9482826114b2565b610cb981600160008581526020019081526020016000206112fe90919063ffffffff16565b505050565b6000600360008473ffffffffffffffffffffffffffffffffffffffff1673ffffffffffffffffffffffffffffffffffffffff16815260200190815260200160002060008373ffffffffffffffffffffffffffffffffffffffff1673ffffffffffffffffffffffffffffffffffffffff16815260200190815260200160002054905092915050565b610d4f82826114db565b5050565b6000610d7b836000018373ffffffffffffffffffffffffffffffffffffffff1660001b6115bb565b905092915050565b60007f7965db0b000000000000000000000000000000000000000000000000000000007bffffffffffffffffffffffffffffffffffffffffffffffffffffffff1916827bffffffffffffffffffffffffffffffffffffffffffffffffffffffff19161480610df65750610df58261162b565b5b9050919050565b600033905090565b600073ffffffffffffffffffffffffffffffffffffffff168373ffffffffffffffffffffffffffffffffffffffff161415610e75576040517f08c379a0000000000000000000000000000000000000000000000000000000008152600401610e6c9061245d565b60405180910390fd5b600073ffffffffffffffffffffffffffffffffffffffff168273ffffffffffffffffffffffffffffffffffffffff161415610ee5576040517f08c379a0000000000000000000000000000000000000000000000000000000008152600401610edc906124ef565b60405180910390fd5b80600360008573ffffffffffffffffffffffffffffffffffffffff1673ffffffffffffffffffffffffffffffffffffffff16815260200190815260200160002060008473ffffffffffffffffffffffffffffffffffffffff1673ffffffffffffffffffffffffffffffffffffffff168152602001908152602001600020819055508173ffffffffffffffffffffffffffffffffffffffff168373ffffffffffffffffffffffffffffffffffffffff167f8c5be1e5ebec7d5bd14f71427d1e84f3dd0314c0f7b2291e5b200ac8c7c3b92583604051610fc39190611e66565b60405180910390a3505050565b600073ffffffffffffffffffffffffffffffffffffffff168373ffffffffffffffffffffffffffffffffffffffff161415611040576040517f08c379a000000000000000000000000000000000000000000000000000000000815260040161103790612581565b60405180910390fd5b600073ffffffffffffffffffffffffffffffffffffffff168273ffffffffffffffffffffffffffffffffffffffff1614156110b0576040517f08c379a00000000000000000000000000000000000000000000000000000000081526004016110a790612613565b60405180910390fd5b6110bb838383611695565b6000600260008573ffffffffffffffffffffffffffffffffffffffff1673ffffffffffffffffffffffffffffffffffffffff16815260200190815260200160002054905081811015611142576040517f08c379a0000000000000000000000000000000000000000000000000000000008152600401611139906126a5565b60405180910390fd5b818161114e91906121d1565b600260008673ffffffffffffffffffffffffffffffffffffffff1673ffffffffffffffffffffffffffffffffffffffff1681526020019081526020016000208190555081600260008573ffffffffffffffffffffffffffffffffffffffff1673ffffffffffffffffffffffffffffffffffffffff16815260200190815260200160002060008282546111e09190612205565b925050819055508273ffffffffffffffffffffffffffffffffffffffff168473ffffffffffffffffffffffffffffffffffffffff167fddf252ad1be2c89b69c2b068fc378daa952ba7f163c4a11628f55a4df523b3ef846040516112449190611e66565b60405180910390a350505050565b61125b82610744565b61126c81611267610dfd565b61169a565b61127683836114db565b505050565b611283610dfd565b73ffffffffffffffffffffffffffffffffffffffff168173ffffffffffffffffffffffffffffffffffffffff16146112f0576040517f08c379a00000000000000000000000000000000000000000000000000000000081526004016112e790612737565b60405180910390fd5b6112fa8282611737565b5050565b6000611326836000018373ffffffffffffffffffffffffffffffffffffffff1660001b611818565b905092915050565b600073ffffffffffffffffffffffffffffffffffffffff168273ffffffffffffffffffffffffffffffffffffffff16141561139e576040517f08c379a0000000000000000000000000000000000000000000000000000000008152600401611395906127a3565b60405180910390fd5b6113aa60008383611695565b80600460008282546113bc9190612205565b9250508190555080600260008473ffffffffffffffffffffffffffffffffffffffff1673ffffffffffffffffffffffffffffffffffffffff16815260200190815260200160002060008282546114129190612205565b925050819055508173ffffffffffffffffffffffffffffffffffffffff16600073ffffffffffffffffffffffffffffffffffffffff167fddf252ad1be2c89b69c2b068fc378daa952ba7f163c4a11628f55a4df523b3ef836040516114779190611e66565b60405180910390a35050565b60006114928360000183611924565b60001c905092915050565b60006114ab82600001611998565b9050919050565b6114bb82610744565b6114cc816114c7610dfd565b61169a565b6114d68383611737565b505050565b6114e582826109fa565b6115b757600160008084815260200190815260200160002060000160008373ffffffffffffffffffffffffffffffffffffffff1673ffffffffffffffffffffffffffffffffffffffff16815260200190815260200160002060006101000a81548160ff02191690831515021790555061155c610dfd565b73ffffffffffffffffffffffffffffffffffffffff168173ffffffffffffffffffffffffffffffffffffffff16837f2f8788117e7eff1d82e926ec794901d17c78024a50270940304540a733656f0d60405160405180910390a45b5050565b60006115c783836119a9565b611620578260000182908060018154018082558091505060019003906000526020600020016000909190919091505582600001805490508360010160008481526020019081526020016000208190555060019050611625565b600090505b92915050565b60007f01ffc9a7000000000000000000000000000000000000000000000000000000007bffffffffffffffffffffffffffffffffffffffffffffffffffffffff1916827bffffffffffffffffffffffffffffffffffffffffffffffffffffffff1916149050919050565b505050565b6116a482826109fa565b611733576116c98173ffffffffffffffffffffffffffffffffffffffff1660146119cc565b6116d78360001c60206119cc565b6040516020016116e8929190612897565b6040516020818303038152906040526040517f08c379a000000000000000000000000000000000000000000000000000000000815260040161172a9190611d61565b60405180910390fd5b5050565b61174182826109fa565b1561181457600080600084815260200190815260200160002060000160008373ffffffffffffffffffffffffffffffffffffffff1673ffffffffffffffffffffffffffffffffffffffff16815260200190815260200160002060006101000a81548160ff0219169083151502179055506117b9610dfd565b73ffffffffffffffffffffffffffffffffffffffff168173ffffffffffffffffffffffffffffffffffffffff16837ff6391f5c32d9c69d2a47ea670b442974b53935d1edc7fd64eb21e047a839171b60405160405180910390a45b5050565b6000808360010160008481526020019081526020016000205490506000811461191857600060018261184a91906121d1565b905060006001866000018054905061186291906121d1565b9050600086600001828154811061187c5761187b6128d1565b5b90600052602060002001549050808760000184815481106118a05761189f6128d1565b5b90600052602060002001819055508387600101600083815260200190815260200160002081905550866000018054806118dc576118db612900565b5b6001900381819060005260206000200160009055905586600101600087815260200190815260200160002060009055600194505050505061191e565b60009150505b92915050565b60008183600001805490501161196f576040517f08c379a0000000000000000000000000000000000000000000000000000000008152600401611966906129a1565b60405180910390fd5b826000018281548110611985576119846128d1565b5b9060005260206000200154905092915050565b600081600001805490509050919050565b600080836001016000848152602001908152602001600020541415905092915050565b6060600060028360026119df91906129c1565b6119e99190612205565b67ffffffffffffffff811115611a0257611a01612a1b565b5b6040519080825280601f01601f191660200182016040528015611a345781602001600182028036833780820191505090505b5090507f300000000000000000000000000000000000000000000000000000000000000081600081518110611a6c57611a6b6128d1565b5b60200101907effffffffffffffffffffffffffffffffffffffffffffffffffffffffffffff1916908160001a9053507f780000000000000000000000000000000000000000000000000000000000000081600181518110611ad057611acf6128d1565b5b60200101907effffffffffffffffffffffffffffffffffffffffffffffffffffffffffffff1916908160001a90535060006001846002611b1091906129c1565b611b1a9190612205565b90505b6001811115611bba577f3031323334353637383961626364656600000000000000000000000000000000600f861660108110611b5c57611b5b6128d1565b5b1a60f81b828281518110611b7357611b726128d1565b5b60200101907effffffffffffffffffffffffffffffffffffffffffffffffffffffffffffff1916908160001a905350600485901c945080611bb390612a4a565b9050611b1d565b5060008414611bfe576040517f08c379a0000000000000000000000000000000000000000000000000000000008152600401611bf590612ac0565b60405180910390fd5b8091505092915050565b600080fd5b60007fffffffff0000000000000000000000000000000000000000000000000000000082169050919050565b611c4281611c0d565b8114611c4d57600080fd5b50565b600081359050611c5f81611c39565b92915050565b600060208284031215611c7b57611c7a611c08565b5b6000611c8984828501611c50565b91505092915050565b60008115159050919050565b611ca781611c92565b82525050565b6000602082019050611cc26000830184611c9e565b92915050565b600081519050919050565b600082825260208201905092915050565b60005b83811015611d02578082015181840152602081019050611ce7565b83811115611d11576000848401525b50505050565b6000601f19601f8301169050919050565b6000611d3382611cc8565b611d3d8185611cd3565b9350611d4d818560208601611ce4565b611d5681611d17565b840191505092915050565b60006020820190508181036000830152611d7b8184611d28565b905092915050565b600073ffffffffffffffffffffffffffffffffffffffff82169050919050565b6000611dae82611d83565b9050919050565b611dbe81611da3565b8114611dc957600080fd5b50565b600081359050611ddb81611db5565b92915050565b6000819050919050565b611df481611de1565b8114611dff57600080fd5b50565b600081359050611e1181611deb565b92915050565b60008060408385031215611e2e57611e2d611c08565b5b6000611e3c85828601611dcc565b9250506020611e4d85828601611e02565b9150509250929050565b611e6081611de1565b82525050565b6000602082019050611e7b6000830184611e57565b92915050565b600080600060608486031215611e9a57611e99611c08565b5b6000611ea886828701611dcc565b9350506020611eb986828701611dcc565b9250506040611eca86828701611e02565b9150509250925092565b6000819050919050565b611ee781611ed4565b8114611ef257600080fd5b50565b600081359050611f0481611ede565b92915050565b600060208284031215611f2057611f1f611c08565b5b6000611f2e84828501611ef5565b91505092915050565b611f4081611ed4565b82525050565b6000602082019050611f5b6000830184611f37565b92915050565b60008060408385031215611f7857611f77611c08565b5b6000611f8685828601611ef5565b9250506020611f9785828601611dcc565b9150509250929050565b600060ff82169050919050565b611fb781611fa1565b82525050565b6000602082019050611fd26000830184611fae565b92915050565b600060208284031215611fee57611fed611c08565b5b6000611ffc84828501611dcc565b91505092915050565b6000806040838503121561201c5761201b611c08565b5b600061202a85828601611ef5565b925050602061203b85828601611e02565b9150509250929050565b61204e81611da3565b82525050565b60006020820190506120696000830184612045565b92915050565b6000806040838503121561208657612085611c08565b5b600061209485828601611dcc565b92505060206120a585828601611dcc565b9150509250929050565b7f4e487b7100000000000000000000000000000000000000000000000000000000600052602260045260246000fd5b600060028204905060018216806120f657607f821691505b6020821081141561210a576121096120af565b5b50919050565b7f45524332303a207472616e7366657220616d6f756e742065786365656473206160008201527f6c6c6f77616e6365000000000000000000000000000000000000000000000000602082015250565b600061216c602883611cd3565b915061217782612110565b604082019050919050565b6000602082019050818103600083015261219b8161215f565b9050919050565b7f4e487b7100000000000000000000000000000000000000000000000000000000600052601160045260246000fd5b60006121dc82611de1565b91506121e783611de1565b9250828210156121fa576121f96121a2565b5b828203905092915050565b600061221082611de1565b915061221b83611de1565b9250827fffffffffffffffffffffffffffffffffffffffffffffffffffffffffffffffff038211156122505761224f6121a2565b5b828201905092915050565b7f45524332305072657365744d696e7465725061757365723a206d75737420686160008201527f7665206d696e74657220726f6c6520746f206d696e7400000000000000000000602082015250565b60006122b7603683611cd3565b91506122c28261225b565b604082019050919050565b600060208201905081810360008301526122e6816122aa565b9050919050565b7f45524332304361707065643a2063617020657863656564656400000000000000600082015250565b6000612323601983611cd3565b915061232e826122ed565b602082019050919050565b6000602082019050818103600083015261235281612316565b9050919050565b7f45524332303a2064656372656173656420616c6c6f77616e63652062656c6f7760008201527f207a65726f000000000000000000000000000000000000000000000000000000602082015250565b60006123b5602583611cd3565b91506123c082612359565b604082019050919050565b600060208201905081810360008301526123e4816123a8565b9050919050565b7f45524332303a20617070726f76652066726f6d20746865207a65726f2061646460008201527f7265737300000000000000000000000000000000000000000000000000000000602082015250565b6000612447602483611cd3565b9150612452826123eb565b604082019050919050565b600060208201905081810360008301526124768161243a565b9050919050565b7f45524332303a20617070726f766520746f20746865207a65726f20616464726560008201527f7373000000000000000000000000000000000000000000000000000000000000602082015250565b60006124d9602283611cd3565b91506124e48261247d565b604082019050919050565b60006020820190508181036000830152612508816124cc565b9050919050565b7f45524332303a207472616e736665722066726f6d20746865207a65726f20616460008201527f6472657373000000000000000000000000000000000000000000000000000000602082015250565b600061256b602583611cd3565b91506125768261250f565b604082019050919050565b6000602082019050818103600083015261259a8161255e565b9050919050565b7f45524332303a207472616e7366657220746f20746865207a65726f206164647260008201527f6573730000000000000000000000000000000000000000000000000000000000602082015250565b60006125fd602383611cd3565b9150612608826125a1565b604082019050919050565b6000602082019050818103600083015261262c816125f0565b9050919050565b7f45524332303a207472616e7366657220616d6f756e742065786365656473206260008201527f616c616e63650000000000000000000000000000000000000000000000000000602082015250565b600061268f602683611cd3565b915061269a82612633565b604082019050919050565b600060208201905081810360008301526126be81612682565b9050919050565b7f416363657373436f6e74726f6c3a2063616e206f6e6c792072656e6f756e636560008201527f20726f6c657320666f722073656c660000000000000000000000000000000000602082015250565b6000612721602f83611cd3565b915061272c826126c5565b604082019050919050565b6000602082019050818103600083015261275081612714565b9050919050565b7f45524332303a206d696e7420746f20746865207a65726f206164647265737300600082015250565b600061278d601f83611cd3565b915061279882612757565b602082019050919050565b600060208201905081810360008301526127bc81612780565b9050919050565b600081905092915050565b7f416363657373436f6e74726f6c3a206163636f756e7420000000000000000000600082015250565b60006128046017836127c3565b915061280f826127ce565b601782019050919050565b600061282582611cc8565b61282f81856127c3565b935061283f818560208601611ce4565b80840191505092915050565b7f206973206d697373696e6720726f6c6520000000000000000000000000000000600082015250565b60006128816011836127c3565b915061288c8261284b565b601182019050919050565b60006128a2826127f7565b91506128ae828561281a565b91506128b982612874565b91506128c5828461281a565b91508190509392505050565b7f4e487b7100000000000000000000000000000000000000000000000000000000600052603260045260246000fd5b7f4e487b7100000000000000000000000000000000000000000000000000000000600052603160045260246000fd5b7f456e756d657261626c655365743a20696e646578206f7574206f6620626f756e60008201527f6473000000000000000000000000000000000000000000000000000000000000602082015250565b600061298b602283611cd3565b91506129968261292f565b604082019050919050565b600060208201905081810360008301526129ba8161297e565b9050919050565b60006129cc82611de1565b91506129d783611de1565b9250817fffffffffffffffffffffffffffffffffffffffffffffffffffffffffffffffff0483118215151615612a1057612a0f6121a2565b5b828202905092915050565b7f4e487b7100000000000000000000000000000000000000000000000000000000600052604160045260246000fd5b6000612a5582611de1565b91506000821415612a6957612a686121a2565b5b600182039050919050565b7f537472696e67733a20686578206c656e67746820696e73756666696369656e74600082015250565b6000612aaa602083611cd3565b9150612ab582612a74565b602082019050919050565b60006020820190508181036000830152612ad981612a9d565b905091905056fea26469706673582212207dbd3cca9b1b2b0b426bea929124abc56d2ee386b9e251ea666cf8ca0477320164736f6c63430008090033a26469706673582212208eeb6e81beef3007fa351ea28630103f5e765b7bdcc9f370b0a31de067e7471f64736f6c63430008090033",
  "linkReferences": {},
  "deployedLinkReferences": {}
}